:020000040000FA
:040000000DEF00F010
:04000800B0EF21F044
:06001800FF001BEF22F0C7
:10380000000001020304050607080C1014182030FC
:1038100040500100610038F4D9F461003CF4DAF45E
:10382000610078F314F5610078F315F5610078F321
:1038300016F5610078F317F520EE04F00E50D92646
:103840000F50DA22DFA027EF1CF029EF1CF063EF06
:103850001CF020EE01F00C50D9260D50DA2214385D
:10386000E842F80BF80BDF6E050E106ED890173299
:10387000163215321432102E36EF1CF020EE02F004
:103880000C50D9260D50DA22610050F4DFF415C532
:1038900014F516C515F517C516F5176A20EE03F0D1
:1038A0000C50D9260D50DA2214501F0BDF6E050E76
:1038B000106ED8901732163215321432102E59EF7E
:1038C0001CF07BEF1CF020EE03F00C50D9260D50BD
:1038D000DA22000EDF6E10EE02F00C50E1260D50E1
:1038E000E222DFC4E7F420EE01F00C50D9260D509F
:1038F000DA22E7C4DFF4610030F4D9F4610034F473
:10390000DAF4610050F4DFF415C514F516C515F5A9
:1039100017C516F5176A14C510F5070E101620EE18
:1039200001F00C50D9260D50DA221050DF1220EE93
:1039300004F00E50D9260F50DA22DF30E8320F0B98
:10394000136E20EE04F00E50D9260F50DA22DFB0AD
:10395000ACEF1CF0B0EF1CF0106A102AB1EF1CF0B5
:10396000106A1038F00B131220EE04F00E50D92616
:103970000F50DA22DFB2BFEF1CF0C3EF1CF0200EB5
:10398000106EC4EF1CF0106A1050131220EE04F0F9
:103990000E50D9260F50DA22DFBED1EF1CF0D5EF42
:1039A0001CF0400E106ED6EF1CF0106A105013126F
:1039B00020EE04F00E50D9260F50DA22DFBCE3EFE0
:1039C0001CF0E7EF1CF0800E106EE8EF1CF0106AA0
:1039D0001050131220EE04F00C50D9260D50DA22AC
:1039E00061004CF4DFF420EE04F00E50D9260F50A5
:1039F000DA22DFB2FEEF1CF000EF1DF02CEF1DF01D
:103A0000080E0C24016E000E0D20026E20EE05F053
:103A10000E50D9260F50DA22610078F303F56100C9
:103A200074F304F520EE04F00E50D9260F50DA227C
:103A3000DF30E8320F0B106E116A010E1024F66EA3
:103A4000380E1120F76EF86A000EF8220800F550C3
:103A5000056E066A76EC22F0120020EE04F00C509F
:103A6000D9260D50DA22DF50176E17C510F520EE5B
:103A700004F00E50D9260F50DA2210461046DF50BF
:103A80001018C30B1018DF6E17B849EF1DF04DEF7B
:103A90001DF0106A102A4EEF1DF0106A20EE04F09F
:103AA0000E50D9260F50DA22DF501018FE0B1018D6
:103AB000DF6E17BA5EEF1DF062EF1DF0106A102A7C
:103AC00063EF1DF0106A20EE04F00E50D9260F505F
:103AD000DA221046DF501018FD0B1018DF6E17BCED
:103AE00074EF1DF078EF1DF0106A102A79EF1DF0C9
:103AF000106A20EE04F00E50D9260F50DA22103250
:103B00001032DF5010187F0B1018DF6E17BE8BEFCE
:103B10001DF08FEF1DF0106A102A90EF1DF0106A53
:103B200020EE04F00E50D9260F50DA22103A10463B
:103B30001046DF501018BF0B1018DF6E20EE01F09A
:103B40000C50D9260D50DA22DF50106E070E1016D9
:103B50001050136E146A156A166A15C516F514C549
:103B600015F513C514F5136A610030F4D9F461003A
:103B700034F4DAF4DF50106E1050131220EE04F01B
:103B80000E50D9260F50DA22DFA0C9EF1DF0CBEF7F
:103B90001DF00CEF1EF0050ED890133614361536B6
:103BA0001636E82ECCEF1DF020EE03F00C50D9268F
:103BB0000D50DA22DF50106E1F0E10161050131227
:103BC00015C516F514C515F513C514F5136A20EEC1
:103BD00002F00C50D9260D50DA22DF50106E105032
:103BE0001312050ED8901336143615361636E82EF5
:103BF000F2EF1DF020EE01F00C50D9260D50DA2224
:103C0000DF50106ED8901032D8901032D890103209
:103C10001F0E101610501312610038F4D9F4610011
:103C20003CF4DAF461004CF4DEF4610050F4DEF4AC
:103C3000610054F4DEF4610058F4DEF4490E016EC4
:103C4000050E026E080E0C24036E000E0D20046E8D
:103C500020EE04F00E50D9260F50DA22DF30E83281
:103C60000F0B106E116A010E1024F66E380E112023
:103C7000F76EF86A000EF8220800F550056E066A25
:103C800076EC22F020EE05F00E50D9260F50DA2205
:103C9000490EDE6E050EDD6E12000301879F000ED9
:103CA0003A6E000E296E6CEC20F00009D8B45BEF80
:103CB0001EF05DEF1EF053EF1EF0330E226E050E68
:103CC000236E010E49EC22F0E806D8A46AEF1EF03C
:103CD0006CEF1EF053EF1EF06100E0F4D9F46100C8
:103CE000E4F4DAF4DF50296E20EE01F03850D926E2
:103CF0003950DA22DF502A6E20EE02F03850D926F1
:103D00003950DA22DF503A6EE80E3B6E070E3C6EF9
:103D1000000E3D6E000E3E6E3F50C30B20093F6EFD
:103D20003F8E3F903F8C3F922A50400F2C6E3AC5F9
:103D30002DF5550E326E2A04D8A4A1EF1EF0A3EF84
:103D40001EF062EF1FF0020E2918D8B4AAEF1EF081
:103D5000ACEF1EF0AEEF1EF062EF1FF03A50D8A4A9
:103D6000B4EF1EF0B6EF1EF0C2EF1EF0060E2B6E83
:103D7000180E2E6E780E2F6E000E306E000E316E05
:103D80004CEF1FF0040E3A18D8A4C9EF1EF0CBEF89
:103D90001EF0D7EF1EF0030E2B6EBF0E2E6E550ECB
:103DA0002F6E550E306E550E316E4CEF1FF0050E16
:103DB0003A18D8A4DEEF1EF0E0EF1EF0ECEF1EF094
:103DC000030E2B6E640E2E6E550E2F6E550E306E3A
:103DD000550E316E4CEF1FF00A0E3A18D8A4F3EFCF
:103DE0001EF0F5EF1EF001EF1FF0030E2B6E960E86
:103DF0002E6E550E2F6E550E306E550E316E4CEFE9
:103E00001FF00B0E3A18D8A408EF1FF00AEF1FF0AE
:103E100016EF1FF0030E2B6EC80E2E6E550E2F6E72
:103E2000550E306E550E316E4CEF1FF00C0E3A18D9
:103E3000D8A41DEF1FF01FEF1FF02BEF1FF0040E93
:103E40002B6E360E2E6EB00E2F6E550E306E550E3A
:103E5000316E4CEF1FF00D0E3A18D8A432EF1FF060
:103E600034EF1FF040EF1FF0030E2B6E460E2E6E48
:103E7000550E2F6E550E306E550E316E4CEF1FF0F5
:103E80003A28D8A446EF1FF048EF1FF04CEF1FF080
:103E90000301878F62EF1FF02B0E406E050E416EFF
:103EA000000EA2EC23F0286E28A059EF1FF05BEF64
:103EB0001FF062EF1FF03B0E186E050E196E000E1C
:103EC0001DEC21F012000A6E000E0B6E20EE04F0C5
:103ED0000250D9260350DA22DF500C6E0A500C0D26
:103EE000530EF324D96E010EF420DA6EDF50046E07
:103EF000050E056ED8900432052E7AEF1FF004509F
:103F0000070B096E0CAE87EF1FF089EF1FF09CEFD7
:103F10001FF0010101B98FEF1FF091EF1FF09BEF30
:103F20001FF034EC24F0060AD8A499EF1FF09BEFA1
:103F30001FF09CEF1FF00B820C30E8320F0B046E69
:103F4000080E0464A6EF1FF0A8EF1FF0BAEF1FF0F1
:103F50000CACADEF1FF0AFEF1FF0B9EF1FF034EC7A
:103F600024F0060AD8A4B7EF1FF0B9EF1FF0BAEF9C
:103F70001FF00B800950046E056A080E0426000E1F
:103F80000522010E0424F66E380E0520F76EF86A3D
:103F9000000EF82208006100D4F306F50C30E83278
:103FA0000F0B076E086A010E0724F66E380E082004
:103FB000F76EF86A000EF8220800F550065CD8B0DB
:103FC000E4EF1FF0E6EF1FF0E7EF1FF00B800A5061
:103FD000F8EC23F00009D8A4F0EF1FF0F2EF1FF087
:103FE000F4EF1FF0030E0B120B501200216E000EA7
:103FF0001D6E185004EC24F0206E20A002EF20F07B
:1040000004EF20F06AEF20F018500C0D580EF32446
:10401000D96E010EF420DA6E610078F31EF56100AE
:1040200074F31FF51E501F10D8B419EF20F01BEFCA
:1040300020F06AEF20F01EC50CF51FC50DF519C55F
:104040000EF51AC50FF52DEC1DF018500C0D510E84
:10405000F324D96E010EF420DA6E000EDB802150BD
:10406000020D640EF324D96E050EF420DA6EDF2AF9
:104070001850DCEC23F01B6E2150020D640EF3246B
:10408000D96E050EF420DA6E1B50DE5CD8A04BEF23
:1040900020F04DEF20F057EF20F02150020D640E7C
:1040A000F324D96E050EF420DA6E000EDF6E20A622
:1040B0005CEF20F05EEF20F068EF20F018500C0D60
:1040C000540EF324D96E010EF420DA6EF70EDF16CB
:1040D000010E1D6E1D501200000E036E000E0A6EC2
:1040E0000A50020D630EF324D96E050EF420DA6E29
:1040F000DF50066E065004EC24F0056E05A083EF39
:1041000020F085EF20F0C6EF20F00650DCEC23F025
:10411000076E05A68EEF20F090EF20F094EF20F0D0
:1041200007C504F5C4EF20F006500C0D550EF3241E
:10413000D96E010EF420DA6EDF501F0B086E0A50A4
:10414000020D640EF324D96E050EF420DA6EDF50F2
:10415000096E0950085CD8B0B0EF20F0B2EF20F043
:10416000B8EF20F00950085C0724046EC4EF20F07B
:104170000850095CD8B0BFEF20F0C1EF20F090EFFD
:1041800020F00950085C046E045003260A2A0A50E5
:10419000D8B4CDEF20F0CFEF20F070EF20F0035037
:1041A00012000501626F000E0501616F2FEC24F013
:1041B0000501606F040E6019D8B4E1EF20F0E3EF61
:1041C00020F0F4EF20F06205D8B4E9EF20F0EBEF37
:1041D00020F0F4EF20F0040E6219D8A4F2EF20F0E2
:1041E000F4EF20F019EF21F00101035105016219EC
:1041F000F80B62190101036F0BEF21F001011DA9FA
:1042000004EF21F006EF21F00BEF21F0020E050183
:10421000616F1BEF21F00239E832070B05016219CB
:10422000D8A415EF21F017EF21F0FEEF20F01BEFDF
:1042300021F0010E616F615112001D6E1D5015ECD1
:1042400023F00009D8B427EF21F029EF21F066EF21
:1042500021F018C502F519C503F51D5063EC1FF0D8
:104260001A6E1A50D8A437EF21F039EF21F066EF1B
:1042700021F01D500C0D580EF324D96E010EF420C0
:10428000DA6E610078F31BF5610074F31CF51B50C6
:104290001C10D8B44EEF21F050EF21F066EF21F062
:1042A0001BC50CF51CC50DF518C50EF519C50FF588
:1042B0000AEC1CF01D500C0D510EF324D96E010EAA
:1042C000F420DA6E030EDF1266EF21F01200000E0A
:1042D000C26E000EC16E000EBE6E000EC36E000EEA
:1042E000BF6E000EC06E070ECA6ECB68C668FE0EAB
:1042F000C76EC868C968040118691069F70E086FAD
:10430000070E206F28690069000E196F000E296FD3
:10431000000E216F000E096F000E016F000E116F6D
:10432000000E226F000E2A6F000E026F000E0A6F41
:10433000000E126F000E1A6F03690B6913691B6977
:10434000070E236F2B6904690C6914691C690F0E31
:10435000246F2C69460E0201096F0B0E3D6F12008F
:104360006100D8F342F56100DCF343F56100E0F34E
:1043700044F56100D4F345F59EA8C1EF21F0C3EFE9
:1043800021F0CEEF21F0AEA8C8EF21F0CAEF21F066
:10439000CEEF21F0F4EC22F0DEEF21F0A2A8D3EF73
:1043A00021F0D5EF21F0DEEF21F0B2A8DAEF21F015
:1043B000DCEF21F0DEEF21F078EC23F0610014F562
:1043C000F5F4610010F5F8F461000CF5F7F4610004
:1043D00008F5F6F4110021EE51F111EE1FF1070E70
:1043E000DBC4E3F4E806FCE22B8E2B50C30B200960
:1043F0002B6E2B8C2B922B90850E276E050E286E24
:10440000000E296E000E2A6E1F0E2C6E050E2D6EEC
:10441000000EA2EC23F01E6E1EA011EF22F013EF8F
:1044200022F01AEF22F0270E186E050E196E000EFC
:104430001DEC21F012007E0EF66E480EF76E000E97
:10444000F86E09006100D4F363F509006100D4F34C
:1044500064F5720EF66E480EF76E000EF86E01EE01
:1044600051F110EE08F00900F5C4EEF4E550E1500A
:10447000FAE101EE46F10B0EEE6AE806FDE10401F9
:10448000080E5D6F000E5E6F000E5F6F00011AEF89
:1044900024F0266E000E256E000E276E2750020DAA
:1044A000630EF324D96E050EF420DA6E2650DE1862
:1044B000D8A45DEF22F05FEF22F06BEF22F026C56B
:1044C00018F522C519F523C51AF52750F6EC1FF08B
:1044D000256E74EF22F0272A2750D8B472EF22F00D
:1044E00074EF22F04EEF22F02550120003C509F5BB
:1044F00004C50AF501C507F502C508F595EF22F0D8
:10450000610024F4D9F4610028F4DAF4DF500B6E72
:10451000094A0A2A61001CF4D9F4610020F4DAF493
:1045200061002CF4DFF4074A082A0506D8A0060625
:10453000052806E10628D8A4A0EF22F0A2EF22F079
:1045400080EF22F012000101018F040ED1EC20F067
:104550000009D8A4AEEF22F0B0EF22F0CCEF22F0A9
:10456000000E01014C6F380E4D6F000E4E6F000EA5
:104570004F6F600E006F870E016F100E026F62ECBE
:1045800023F010EC24F04BEC23F0C9EC23F034ECD6
:1045900023F0000ED1EC20F012000301879F000EE3
:1045A000886F0C0E896F040E8F6F000E906F010ED6
:1045B0008A6F3C0E8E6F8C0E8D6F000E8C6F000E0E
:1045C0008B6F000EBB6F889588938891D60E05017E
:1045D000606F430E616F000E626F21EC24F09E88C5
:1045E000840E0301876F1200030188A5FAEF22F001
:1045F000FCEF22F0FDEF22F0889559505A105B1025
:10460000D8B405EF23F007EF23F014EF23F002D81E
:1046100014EF23F00500FA6E5950FD6E5A50FE6EED
:104620005B50FF6EFA5012001200026E000E016E17
:10463000040E02601EEF23F020EF23F032EF23F090
:1046400002500C0D500EF324D96E010EF420DA6ED8
:104650000101DFAE2EEF23F030EF23F032EF23F035
:10466000010E016E01501200000E0501606F6051D5
:10467000020D640EF324D96E050EF420DA6E000EDE
:10468000DF6E602B6051D8B448EF23F04AEF23F07F
:1046900037EF23F01200010E01015C6F040E5D6F15
:1046A000600E5E6F030E5F6F9A0E0501606F3C0E29
:1046B000616F000E626F28EC24F001011E83B29836
:1046C000A2881200090E0101046F090E056F1C0E6D
:1046D000066F000E076F010E086F010E096F040EC2
:1046E0000A6F000E0B6F050E0D6F020E0E6F12009B
:1046F000010160A17EEF23F080EF23F08DEF23F026
:1047000002D88DEF23F00500FA6E4650FD6E47503B
:10471000FE6E4850FF6EFA5012001200000E0001AB
:10472000606F000E616F000E626F000E636F000E0F
:10473000646F000E656F000E666F000E676F000EEF
:10474000686F1200046E000E036E045015EC23F027
:104750000009D8B4AEEF23F0B0EF23F0B4EF23F0AC
:104760000450F8EC23F0036E03501200200E0001F9
:10477000AD6F000EAF6F010EB36F020EB16F000E82
:10478000B06FB2A1C6EF23F0C8EF23F0C1EF23F062
:104790001200DF0E01018C6F070E8D6F000E8E6F01
:1047A000000E8F6F9069070E916F000E926F400E92
:1047B000936F810E806F1200026E02500C0D530E2B
:1047C000F324D96E010EF420DA6EDF50016E1F0E55
:1047D0000116012812003DEC24F08EEC23F0CDEC04
:1047E00022F067EC21F0B6EC23F0A3EC22F01200EB
:1047F000016E01500C0D540EF324D96E010EF420FD
:10480000DA6EDF50010B1200016E01500C0D540ED8
:10481000F324D96E010EF420DA6EDF50090B12007A
:10482000000E0101506F040E516F600E526F010EA9
:10483000536F1200EBEC23F0D68E1DEF24F00DEF3A
:1048400000F060C559F561C55AF562C55BF5120007
:1048500060C546F561C547F562C548F5120001011E
:104860000239E832070B120001010239E832070B66
:1048700012000011223344556677D69A12000100C7
:020000040020DA
:10000000FF0FFF0FFF0FFF0FFF0FFF0FFF0FFF0F80
:10001000FF0FFF0FFF0FFF0FFF0FFF0FFF0FFF0F70
:020000040030CA
:10000000FAEFF7FF9FFFFFFFFFFFFFFFFFFFFFFF7D
:10001000FFFFFFFFFFFFFFFFFFFFFFFFFFFFFFFFF0
:04002000FFFFFFFFE0
:00000001FF
